:02000004080AE8
:1000000000000A08D0630A08000006000600050187
:080010000402DE0500000000FF
:04001800D45A0A08A4
:1000200009480A4908B5884205D0094A824202D0E7
:10003000121A05F00BFD0748074A0021121A05F0B5
:1000400010FD064808BD00BF0000002034630A0808
:100050007400002074000020840600208406002024
:1000600070B502F081FE074B074C1E46E41AA40847
:100070000025A54204D056F8253098470135F8E709
:1000800070BD00BFE4620A082C630A0800F044B99E
:1000900008B500F087F9BDE8084002F027BE02F07D
:1000A000D3BC000008B5034A00210C2002F040FC3C
:1000B000FEE700BF5D270A080078B0FA80F040092B
:1000C0007047012303707047F0B504781F2C08D8DF
:1000D000073C062C14D80621117008221A70012042
:1000E000F0BD24060CD4084E002406270578203DD8
:1000F00007FB05652D5D0D550134062CF6D1EAE7A9
:100100006FF00100F0BD00BFE85A0A084368002004
:10011000184770B5154604460368084698474DB120
:10012000636801209847A368984763680020BDE88A
:100130007040184770BD03682C215B6D18470000A4
:1001400010B504468022114601F086FD084B20467A
:100150002360012102F08CFA40221146204602F071
:100160009DFA40222046114602F08BFA204610BD2F
:10017000305D0A0837B5044615468DF8053003682A
:100180008DF804105B6D2A2198472368022201A98B
:100190002046DB6D9847BDF9183020468DF80530B4
:1001A00023688DF804505B6D2B2198472368022249
:1001B000DB6D01A92046984703B030BDF7B5044672
:1001C0000F46802500222B4611460095FFF7D2FFEF
:1001D0002046FFF7B0FF23682A461E6E39462B469D
:1001E0002046B44603B0BDE8F0406047F7B5054689
:1001F000181EBDF8206005DA84B201326042224444
:1002000000B212B26C8B2B8B22440B4494B21BB203
:1002100001382044002B22B200B22ADBB5F90810C5
:10022000994226DBB5F90A40A24222DC002820DBF5
:1002300022EAE27297B2A042D4BFC7EB0004C7EB38
:1002400004040134A4B2013F27443FB21946009789
:100250002846FFF78FFF2846FFF76DFF2B682246E1
:100260001F6E31462846BC46012303B0BDE8F0406E
:10027000604703B0F0BD0000F7B5002B0546BDF8A0
:10028000206005DA98B20131434201441BB209B241
:100290002C8B688B214402448CB212B2013B234464
:1002A000002A21B21BB229DBB5F90A00904225DBF6
:1002B000B5F90840A14221DC002B1FDB21EAE171E6
:1002C00088B2A342D4BFC0EB0304C0EB04040134E2
:1002D000A4B2431E234400921BB22846FFF74AFFF4
:1002E0002846FFF728FF2B6822461F6E3146284616
:1002F000BC46012303B0BDE8F040604702F034FE85
:10030000024903B0BDE8F04002F060BC945D0A0809
:1003100002F0D4B97047000013B502F025FE4FF487
:10032000E13102F007FE40F2E27304228DE80C0096
:100330001A4C002211461323122000F0F1F9204636
:1003400000F031FA2046164C0021FFF737FF204617
:1003500030232822202100F08FFD02231A46204658
:10036000032100F090FD20461F234FF4FC624FF460
:10037000784100F07DFD00223C231146204600F02C
:1003800073FD204600224FF6FF7100F079FD2046F4
:1003900002B0BDE8104000F07ABD00BFA40000200C
:1003A0007800002070B500F09DF9044600F0A4F933
:1003B000054600F0ABF9EAB2C3B2E1B20248BDE8CB
:1003C000704000F0DDBE00BF7800002010B504468C
:1003D0002C2103F081F8204610BD000013B502F077
:1003E0006DF90C480C4C00780C4B0D4A0D491B78EC
:1003F000127809780090204600F024FC0A4A0B4944
:10040000204603F05BF82146094802B0BDE81040E1
:1004100000F024BD02000020A40000200300002002
:1004200000000020010000207400002015030A08CD
:100430007800002002F042B93C232DE9F041B0FBE6
:10044000F3F403FB14020A70B4FBF3F203FB124350
:100450004B704FF46163B0FBF3F31824B3FBF4F279
:1004600004FB12338B703D4B0722B0FBF3F0031DEE
:10047000B3FBF2F20024C2EBC2029B1A40F26D18E9
:1004800022460133CB704FF0640E4FF4C87CE6B2C5
:1004900006F2B27313F003070ED193FBFEF50EFBC9
:1004A000153565B993FBFCF50CFB1535002D14BF14
:1004B00045464FF4B77504E040F26D1501E04FF486
:1004C000B7752A44904204F10104E0D28E7197B9C5
:1004D000642593FBF5F405FB14347CB94FF4C8751F
:1004E00093FBF5F405FB1434002C40F26D1408BFA7
:1004F0004FF4B77404E040F26D1401E04FF4B774A8
:10050000121B6426801A93FBF6F24FF4C87406FBA4
:10051000123693FBF4F2DFF848E004FB12330022BA
:10052000012AD5B206D147B94EB9002B14BF1C24FD
:100530001D2405E012F80E4002E01C2400E01D24FA
:10054000844205D801320C2AA0EB0400E8D11546FC
:10055000013501304D710871BDE8F0818051010015
:10056000A65D0A0838B5054C05462368834203D0CA
:100570000349FFF761FF256038BD00BFD0000020B0
:10058000D400002040F2B271F0B52A4B8279642584
:1005900053434FF4C876A1F2B274A24211DD8C0726
:1005A0000DD191FBF5F405FB141424B991FBF6F47D
:1005B00006FB14141CB903F5A83303F5C07301310D
:1005C000E9E702F2B272642492FBF4F14FF4C875C9
:1005D00004FB112492FBF5F14679174FDFF85CE03C
:1005E00005FB1125012102F00302B14211DA0229B3
:1005F00007D132B904B925B903F5181303F56E53C1
:1006000005E007EB010C1CF801CC0EFB0C330131AB
:10061000EBE744783C21614382784FF4616404FB4A
:1006200002110278114402790448013A00FB0210D9
:100630001844F0BD8033E101A65D0A088051010035
:1006400008B5074B02221860064B1B681844064B7E
:100650001860064B1A7002F089F8054B186008BD47
:10066000DC00002004000020EC000020E00000205E
:10067000E800002070B5154D154E02F077F82B6894
:10068000134CC01AB0F57A7F06D3326803F57A733B
:10069000013232602B60F0E70E4D23682A689A42DF
:1006A00012D80D4B1B687BB1984710B1FFF7C8FFFC
:1006B0000AE00A4B22681B681344094A2B6013782E
:1006C000003318BF01231370206870BDE8000020BC
:1006D000DC000020EC000020E400002004000020EA
:1006E000E000002008B5FFF7C5FFFFF73BFF014B17
:1006F000987808BDD400002008B5FFF7BBFFFFF7CE
:1007000031FF014B587808BDD400002008B5FFF731
:10071000B1FFFFF727FF014B187808BDD400002078
:1007200070B50546059C0948632C049ECCBFA4F215
:10073000B2741E3484714671857003714170027009
:10074000FFF720FFBDE87040FFF77ABFD40000201C
:1007500001F0B4BF7047F7B502FB03F70546081276
:100760008DF804008DF805100024BC4207D02A68DB
:1007700001A9D66D28460222B0470134F5E703B03F
:10078000F0BD0000024B0146187802F006BE00BF23
:10079000F000002010B5044602F018FE2146BDE826
:1007A000104002F0AFB910B50446782002F04CFAC0
:1007B000236820465B6DD7219847236820469B6DB0
:1007C0009F219847236820465B6DE0219847236866
:1007D00000219B6D204698470A2002F035FA2368D5
:1007E00020465B6DFA219847236801219B6D2046C6
:1007F0009847142002F028FA2368E3215B6D204615
:100800009847142002F020FA236820465B6DE1210E
:100810009847236820465B6D28219847236811215B
:100820005B6D204698471E2002F00EFA2368204692
:100830005B6DC0219847236820469B6D1721984720
:10084000236820469B6D01219847236820465B6DF5
:1008500025219847236820469B6D1E2198472368D1
:1008600020465B6DC3219847236820469B6D03217A
:100870009847236820465B6DC4219847236820462B
:100880009B6D07219847236820465B6DC5219847DB
:10089000236820469B6D01219847236820465B6DA5
:1008A000CB219847236820469B6D012198472368F8
:1008B00020465B6DB7219847236820469B6D002139
:1008C0009847236820465B6DD021984723682046CF
:1008D0009B6D1D219847236820465B6DB521984785
:1008E000236820469B6D89219847236820465B6DCD
:1008F000BD219847236820469B6D022198472368B5
:1009000020465B6DF0219847236820469B6D0721A8
:100910009847236820469B6D0C2198472368204602
:100920009B6D0C219847236820469B6D12219847A8
:10093000236820465B6DF4219847236820469B6D11
:1009400033219847236820469B6D332198472368BD
:1009500020469B6D33219847236820469B6D0021DC
:100960009847236820469B6D33219847236820468B
:100970009B6D66219847236820469B6D66219847AA
:10098000236820469B6D66219847236820465B6D4F
:1009900020219847236820465B6D2A2198472368C9
:1009A00020469B6D00219847236820469B6D7F2140
:1009B0009847236820465B6D2B2198472368204683
:1009C0009B6D00219847236820469B6D7F219847A7
:1009D000236820465B6D3A219847236820469B6D2B
:1009E00005219847236820465B6D36219847236888
:1009F00020469B6D80219847236820465B6DB0217F
:100A00009847236820469B6D7F219847236820469E
:100A10005B6D29219847236820465B6DF921984733
:100A2000236820469B6D00219847236820469B6DD4
:100A300002219847236820469B6D0421984723682C
:100A400020469B6D06219847236820469B6D082110
:100A50009847236820469B6D0A21984723682046C3
:100A60009B6D0C219847236820469B6D0E2198476B
:100A7000236820469B6D10219847236820469B6D74
:100A800012219847236820469B6D142198472368BC
:100A900020469B6D16219847236820469B6D1821A0
:100AA0009847236820469B6D1A2198472368204663
:100AB0009B6D1C219847236820469B6D1E219847FB
:100AC000236820465B6D29219847012010BD30B571
:100AD00085B01D128DF80D30038B8DF80C50194424
:100AE000458B0BB22A44002B044612B218DBB0F936
:100AF0000A10914214DBB0F90810994210DB002A69
:100B00000EDB00921946FFF735FB23682C215B6D45
:100B10002046984723680222DB6D03A920469847A8
:100B200005B030BD38B504460D4602F04FFC01F06B
:100B3000CBFF94F82900002102F02FFC94F8280044
:100B4000002102F02AFC012229460C48FFF7E1FAB5
:100B500094F82A00002102F020FC94F82A000121D8
:100B600002F01BFC94F82800012102F016FC02F0B0
:100B70002DFCBDE8384001F0B7BF00BFF4000020F5
:100B800038B504460D4602F021FC01F09DFF94F8B3
:100B90002900012102F001FC94F82800002102F054
:100BA000FCFB012229460C48FFF7B3FA94F82A000F
:100BB000002102F0F2FB94F82A00012102F0EDFB83
:100BC00094F82800012102F0E8FB02F0FFFBBDE8E9
:100BD000384001F089BF00BFF400002070B5044622
:100BE00016460D4602F0F2FB01F06EFF012194F86B
:100BF000290002F0D2FB002194F8280002F0CDFB7E
:100C00002E44B54210D0012215F8011B0C48FFF705
:100C100080FA94F82A00002102F0BFFB012194F829
:100C20002A0002F0BAFBECE794F82800012102F058
:100C3000B4FB02F0CBFBBDE8704001F055BF00BF34
:100C4000F40000202DE9F0410446174688461E4670
:100C50009DF81850FFF774FA1F4B20482360204B73
:100C600084F8288083601F4B84F8297043601E4BF2
:100C700084F82A6003601D4B84F82B501D70FFF729
:100C800045FA94F82800012102F076FB94F8280038
:100C9000012102F082FB94F82900012102F06CFB93
:100CA00094F82900012102F078FB94F82B0001212F
:100CB00002F062FB94F82B00012102F06EFB94F825
:100CC0002A00012102F058FB94F82A00012102F0C9
:100CD00064FB2046BDE8F081BC5D0A08F4000020FA
:100CE00055070A0885070A0895070A08F00000203A
:100CF00001F0E4BC000000003B292DE9F74F28BFBC
:100D00003B214FF00F0BB1FBFBFB0446CBEB0B1071
:100D1000081AC0B292461E460F4604F0E5FC4C4944
:100D200004F0EAFD4B4904F033FD04F0F7F800222B
:100D3000494B04F071FA44A3D3E9002304F042F9CB
:100D400002F026FDCDE90001504604F0C5F88046CA
:100D5000894602460B46DDE9000104F033F94246BC
:100D6000CDE900014B464046494604F02BF9DDE948
:100D70000023804689461046194604F023F90246AE
:100D80000B464046494603F069FF0C9D02F048FDC2
:100D90005FFA8BFBBBF1020F8046894623D0BBF183
:100DA000030F36D0BBF1010F0FD037B9B4F90430BF
:100DB0003380E388CAEB030A1CE004F0B3FBA3888A
:100DC00018443080DDE9000136E00F2FA78801D1FB
:100DD000BA4423E0DDE9000104F0A4FB384430808C
:100DE0004946404610E01E2F07D1B4F90430338045
:100DF000E3889A44A5F800A023E004F093FBA388BD
:100E0000181A3080DDE9000104F08CFBE3881844F7
:100E100016E02D2FA78807D1CAEB070AA6F800A075
:100E2000B4F906302B800CE0DDE9000104F07AFB18
:100E3000381A30804946404604F074FBE388181A9B
:100E4000288003B0BDE8F08F182D4454FB210940E1
:100E5000000070410000B442008066400122016041
:100E600002824282828270478180C2800381704701
:100E7000C18202834383704741818281C38170476D
:100E800002854185704701824282838270472DE945
:100E9000FF410446006801F0E9FB01210746206894
:100EA00001F0E2FB2068268D05680096B4F9083051
:100EB000B4F90620B4F904102D6BA8472068668D9C
:100EC00005680096B4F90830B4F90620B4F90410A6
:100ED000ED6AA8472068B4F90830B4F82AE0E2883F
:100EE00006680825CDF800E0D21AB4F9041093FB87
:100EF000F5F3B66912B2B047B4F90860206896FB02
:100F0000F5F3A188B4F82AE0314406685B42CDF8D5
:100F100000E0B4F90620F6691BB209B2B047B4F993
:100F20000810206891FBF5F3B4F82AE0E28806681F
:100F30000A44CDF800E05B42B4F90410B6691BB274
:100F400012B2B0472068B4F82AE0B4F90830A1889A
:100F50000668C91ACDF800E0B4F9062093FBF5F352
:100F6000F66909B2B0470DF10E062289009603AB6F
:100F700020460521FFF7C0FEBDF90EE0BDF90C309B
:100F8000CEEBCE02C3EBC30192FBF5F291FBF5F180
:100F90002068B4F82A80D0F800C0CDF800E0CDF881
:100FA0000480DCF8288012B209B2C047228900967A
:100FB00003AB20460A21FFF79FFEBDF90EE0BDF905
:100FC0000C30CEEBCE02C3EBC30192FBF5F291FBEA
:100FD000F5F12068B4F82A80D0F800C0CDF800E020
:100FE000CDF80480DCF8288012B209B2C04722890B
:100FF000009603AB20461421FFF77EFEBDF90EE0FC
:10100000BDF90C30CEEBCE02C3EBC30192FBF5F27F
:1010100091FBF5F12068B4F82A80D0F800C0CDF833
:1010200000E0CDF80480DCF8288012B209B2C04795
:101030002289009603AB20461921FFF75DFEBDF91A
:101040000EE0BDF90C30CEEBCE02C3EBC30192FB38
:10105000F5F291FBF5F12068B4F82A80D0F800C0D1
:10106000CDF800E0CDF80480DCF8288012B209B297
:10107000C0472289009603AB20462321FFF73CFEA0
:10108000BDF90EE0BDF90C30CEEBCE02C3EBC301CF
:1010900092FBF5F291FBF5F12068B4F82A80D0F8C4
:1010A00000C0CDF800E0CDF80480DCF8288012B252
:1010B00009B2C0472289009603AB20462821FFF7DA
:1010C0001BFEBDF90EE0BDF90C30CEEBCE02C3EB3A
:1010D000C30192FBF5F291FBF5F12068B4F82A8088
:1010E000D0F800C0CDF800E0CDF80480DCF828800E
:1010F00012B209B2C0472289009603AB20463221C2
:10110000FFF7FAFDBDF90EE0BDF90C30CEEBCE02D3
:10111000C3EBC30192FBF5F291FBF5F12068B4F843
:101120002A80D0F800C0CDF800E0CDF80480DCF8CB
:10113000288012B209B2C0472289009603AB20462C
:101140003721FFF7D9FDBDF90C30BDF90E60C3EBB7
:10115000C301C6EBC60292FBF5F291FBF5F12068E4
:10116000B4F82AE005688DE8404012B2AD6A09B2D1
:10117000A8473946206801F077FA04B0BDE8F0814D
:101180002DE9F04F044687B000680D46934604935E
:1011900001F06CFA218A0390206801F065FA20685A
:1011A000278D06680197B4F91E70B4F906200097E0
:1011B000B4F91C30B4F90410B66AB0472946172DAB
:1011C00028BF17210C25B1FBF5F305FB1315EDB274
:1011D000C5EB05150BEB8505ADB2B420B5FBF0F3FF
:1011E00000FB135080B2029304F07EFA884904F0A9
:1011F00083FB884904F0CCFA03F090FE0022864B72
:1012000004F00AF880A3D3E9002303F0DBFE02F028
:10121000BFFAB4F80AA080465046894603F05CFE47
:1012200006460F4602460B464046494603F0CAFEB4
:101230003246804689463B463046394603F0C2FE78
:10124000424606460F464B464046494603F0BAFE24
:101250000B4602463946304603F000FD02F0E0FA44
:10126000BDF8083006460F46032B5ED8DFE803F0D2
:1012700002172E44A288E3881DB9A283CAEB030A91
:101280002BE00593029204F04DF9029A494610446E
:10129000A083404604F046F9059B181A44E0B42D9B
:1012A000E388A58804D1AA44A4F81CA0E3833CE009
:1012B00049464046029304F035F92844A083394654
:1012C000304604F02FF9029B18442DE0B5F5B47FA9
:1012D000A388E58804D1A383AA44A4F81EA024E02F
:1012E000029304F01FF9029B4946181AA083404656
:1012F00004F018F9284417E0B5F5077FA388E588BE
:1013000005D1CAEB030AA4F81CA0E5830DE0494609
:101310004046029304F006F9029B3946181AA0834E
:10132000304604F0FFF8281AE0832068E68A056852
:101330000196B4F91E60B4F91C300096B4F9062089
:10134000B4F90410AD6AA847618A206801F08CF9ED
:101350002068268D05680196B4F92260B4F9203022
:101360000096B4F90620B4F90410AD6AA84704F158
:101370002203A2890093594604F120032046FFF777
:10138000BBFC2068268B05680196B4F92260B4F98D
:1013900020300096B4F90620B4F90410AD6AA847CD
:1013A000A18A206801F060F92068268D0568019601
:1013B000B4F92660B4F924300096B4F90620B4F9E3
:1013C0000410AD6AA84704F12603E289009304994A
:1013D00004F124032046FFF78FFC2068668B056824
:1013E0000196B4F92660B4F904100096B4F92430DB
:1013F000B4F90620AD6AA8470399206807B0BDE894
:10140000F04F01F031B900BF182D4454FB210940C1
:10141000000034430000B4420080664001F04EB941
:101420002DE9F04F002BCCBF4FF0FF3701270446CA
:1014300091468A46984685B0BDF83C60BDF9385063
:10144000039707680096002DFF69CCBF4FF0FF3B64
:101450004FF0010BB847236809EB050200965A4488
:10146000DF6951464346204612B2B84723680096CA
:101470009F694A462B4651462046B847039BD044B5
:1014800008EB030123680E969E694A462B462046C8
:10149000B44609B205B0BDE8F04F60472DE9F74FFB
:1014A00006460C461746002B01EB0305BDF93080BC
:1014B000BDF834902DB2ACBF4FF0010A4FF0FF3AA7
:1014C000AC420CD03368CDF80090D3F818B0214668
:1014D00043463A4630465444D84724B2F0E703B076
:1014E000BDE8F08F2DE9F04F0446002BB8BF5B42FA
:1014F00087B01BB25D000093002301938BB203936E
:10150000BDF8407093B2C5F103050493BDF90430F2
:10151000009A059393427EDCBDF80430BDF800804C
:101520000293029A039B204603EB020A049B0FFAE4
:101530008AFA03EB080923680FFA89F91E694A46FB
:1015400051463B46B047039B029A20469E1A2368A9
:1015500036B2D3F810B04A4631463B46D847049BD2
:101560005146C8EB030923680FFA89F9D3F810B084
:101570004A463B462046D84723684A46D3F810A03F
:1015800031463B462046D047039B029A03EB080AAC
:10159000049B0FFA8AFA9E18236836B2D3F810908B
:1015A000324651463B462046C847039B3246C8EB6D
:1015B000030923680FFA89F9D3F810B049463B466E
:1015C0002046D847049B029A51469E1A236836B299
:1015D000D3F810B032463B462046D84723683246FF
:1015E000D3F810A049463B462046D047002D059B26
:1015F00003DA05EB8305063509E0009A08F1FF38A8
:101600009B1A05EB83050FFA88F30A350093019BBB
:10161000013301937AE707B0BDE8F08F2DE9F04F71
:101620000546002BB8BF5B428BB01FB27C0093B263
:10163000BDF85090C4F103044FF0000B1FFA81FA7B
:1016400009930FFA8BF3BB42049357DC099B1FFAF3
:1016500087F8C8EB03031BB205934FEA4803013335
:101660001BB206932B68CDF800901FFA8BF69B698E
:101670000AEB06010396059A1E4609B2069B284608
:10168000B047039A099BCDF800909B1A1BB20793B1
:10169000530001331BB208932B680AEB08019B69C6
:1016A000079A1E4609B2089B2846B047039BCDF80F
:1016B0000090C3EB0A012B68059A9E6909B2069B4C
:1016C0002846B0472B68CDF80090C8EB0A019E6908
:1016D000079A089B09B22846B047049B002CA5BF77
:1016E000DF1B04EB870404EB830408F1FF37B2BF70
:1016F00006340A343FB20BF1010BA2E70BB0BDE890
:10170000F08F2DE9F04F04469B468A4685B0BDF820
:101710004450BDF9389007680195CDF80090BDF9A7
:1017200040800392BF6ABDF93C60B84723680195C9
:10173000CDF800809F6A4A46334659462046B8474E
:10174000039A23680E920F959D6A4246534631468E
:101750002046AC4605B0BDE8F04F60472DE9F04F9C
:101760000646994693460D468FB0BDF86C70BDF99C
:10177000604003970768BDF964800497039FBDF933
:1017800068A08DE89000049FBF6AB847039A336849
:101790000192CDF800A09F6A224643464946304652
:1017A000B847039A33680192CDF800B09F6A524659
:1017B0002B4641463046B847F38B4D4507934FF0D3
:1017C0000103F38319D1454517D154452346B8BFCA
:1017D00053465445A8BF54465C452246A8BF5A46C6
:1017E0009B45ACBFC2EB0B03C2EB0303039831680C
:1017F0000090CC691BB229460AE0A3450BD1D34522
:1018000013D1039A594600925A4633689C690023C3
:101810003046A047D0E054450CD0D34516D12B46D6
:10182000A3464D465446994604E02B465C46454641
:10183000D3469846A345D4BF01234FF0FF33C1459B
:10184000A2461FDD4A46C14690461BE0A3450FDC79
:10185000D34505DD5B46D3469A462B46454698461A
:10186000A2450EDA234654469A464B46C14607E047
:1018700054455B4640F3A680D3469A462B464546E0
:1018800098460123C5EB09020892C5EB08020592B0
:10189000012BCBEB0402069261D1CBEB0A03099337
:1018A00000231946AAB20A92013204930D92089AB3
:1018B00006988A180C92059A1A440B92049A82424E
:1018C0001CDA91FBF0F10A9A03981144099A3768DF
:1018D00093FBF2F30D9A00901344049AF86989B2CD
:1018E0005B1A5A4407461BB209B212B23046B847D7
:1018F000049B0C99013304930B9BD8E74FF0000B2A
:10190000C4EB0A03DA460493C9EB0803069F089365
:10191000059BC8EB09085F436B1C0693089B9B441F
:10192000049B9A4548DA08EB0B0191FBF3F1069B07
:10193000494489B25A1A099B039D97FBF3F3306817
:10194000134400950AEB0402C5691BB212B209B236
:101950003046A847059B0AF1010A1F44DEE7069BB3
:10196000A4B25F42002319469846ADB2E21905F1D0
:10197000010B0492089AB84501EB020A059A02EBA2
:10198000030919DA91FBF7F193FBF7F3039C306835
:101990000094049A2944C06989B25B445B1AC8EB7D
:1019A000020204461BB209B212B23046A04708F147
:1019B00001084B465146DDE7BDF81C30F3830FB0FC
:1019C000BDE8F08FA3461C462B464D46994647E797
:1019D000837D032B0ED8DFE803F00206020683891D
:1019E0000381C38902E0C3890381838943818175AF
:1019F000002070476FF00200704770472DE9F047F4
:101A0000BDF820609046032207468946B6FBF2F6F1
:101A10001C460025A9B28E4204F1030416D914F81D
:101A2000033C3868DA1014F8023C49449B105B010F
:101A300043EAC22314F8012CD0F810A043EAD203E1
:101A400009B242463846D0470135E3E7BDE8F087A2
:101A50002DE9F0471646B0F91A20054692190C46B2
:101A6000BDF8208019D4B0F90A108A4215DC002B89
:101A700004EB03073FB2ACBF4FF001094FF0FF3951
:101A8000A7420AD02B682146D3F810A0324643461D
:101A900028464C44D04724B2F2E7BDE8F0872DE950
:101AA000F0471446B0F91820054652180E46BDF806
:101AB000208019D4B0F908108A4215DC002B04EB01
:101AC00003073FB2ACBF4FF001094FF0FF39A74207
:101AD0000AD02B682246D3F810A031464346284648
:101AE0004C44D04724B2F2E7BDE8F087F0B5C48B90
:101AF0008646012C1546BDF8146006D103681C69A2
:101B00003346A446BDE8F040604716D9012BD0F813
:101B100000E00CBF0596059623B24FEA540415BFAA
:101B20002A1BDEF81C50DEF81850091BAC46BDE835
:101B3000F0400CBF09B212B26047F0BD2DE9F04F82
:101B40009846164687B0BDF84420BDF9403005924E
:101B500088EAE87E81EAE172C1EB0804A2EBE17257
:101B6000AEEBE87ECEEB020E002CA3EB060786EA76
:101B7000E67283EAE37CB8BF6442A2EBE672002F10
:101B8000ACEBE37CCCEB0202B8BF7F42BEF1000FAE
:101B9000B8BFCEF1000E002AB8BF5242964524B21B
:101BA0003FB2CCBF00220122BC4282460D464046D5
:101BB000049208DA224698463C46354617460346C4
:101BC0000E46012200E00022C5EB08010029A3EB2C
:101BD0000603CCBF01214FF0FF314FEA4709002B2C
:101BE000A7EB04070391CCBF4FF0010B4FF0FF3B75
:101BF0007F00C4EB0904AAB1A84529D0002CA8BFD6
:101C00005E44059BA8BF36B200932A46049B31462A
:101C10005046B4BF4C44E419FFF768FF039B1D44D2
:101C20002DB2E9E7A84513D0002CA8BF5E44059B60
:101C3000A8BF36B200932946049B32465046B4BF33
:101C40004C44E419FFF752FF039B1D442DB2E9E712
:101C500007B0BDE8F08F000010B500244460084CC8
:101C600004604C1E023904818181541E0549023AE8
:101C7000C2810122448182820162C28310BD00BF01
:101C8000285E0A08C9000A082DE9F04F9A4691B06B
:101C900015462022044689460DEB0200002103F080
:101CA000E0FE002650468DF81E608DF81F6003F0A0
:101CB00009FFF3B2834206F10106FAD39AF8003025
:101CC000002B00F01981266A0DF11F030DF11E0291
:101CD00008A95046B0472988628BC6B28A1AB9F85B
:101CE0000000218BB4F814E0411A608A9DF81E3080
:101CF00001909DF81F0003FB0EF300FB0EF0276818
:101D000000B200901BB212B209B27F6A2046B847F7
:101D10009AF800300AEB0601DA1F062A0ED80A2BC1
:101D20000AD14FF00003A9F80030A28A2B889DF851
:101D30001F0000FB02332B808A46BFE7B4F90C007A
:101D40009DF81E20A38A8A4603FB1203B9F90010EE
:101D500099429DF81F3008DD4FF00002A9F80020DD
:101D6000A28A298803FB02122A80B4F90E00A28AF3
:101D7000B5F9001003FB1202914201DD0120BBE026
:101D8000012E41D900230293029A08AB9DF808B0B6
:101D9000D35C002703930BF00103DB009BB2049399
:101DA0004FEA5B0B039B3B41D90724D5049B4FF0C3
:101DB00000083B449BB20593A38A5FFA88FE9E45C8
:101DC00008F1010817D2618B2A88B9F80000521A6D
:101DD000218B0BFB0322411A059812B200FB031161
:101DE000208A7144009020681BB2806909B20646BF
:101DF0002046B047E0E70137082FD3D1029B0133DB
:101E0000202B0293C0D16DE0102B4FF00003029302
:101E100038D1029A08AB12F803B000274BFA07F347
:101E2000DA0720D54FF00008A38A5FFA88FE9E45A6
:101E300008F1010817D2618B2A88B9F80000521AFC
:101E4000029901FB0322218B12B2411A208A07FB5F
:101E5000031100902068714480691BB2064609B2E4
:101E60002046B047E0E70137082FD7D1029B013366
:101E7000102B0293CDD135E00136082E0ED1029BF6
:101E8000013302939DF808809DF81E30434529D9FF
:101E900010AB434413F8203C00260393039B3341CB
:101EA000DB07E9D54FF0000BA38A5FFA8BFE9E4556
:101EB0000BF1010BE0D2618B2A88B9F80000521AAD
:101EC000218B06FB0322411A208A08FB0311009094
:101ED0002068714480691BB2074612B209B22046DD
:101EE000B847E1E7A28AB9F800309DF81E1001FB5F
:101EF0000233A9F80030E1E611B0BDE8F08F13B568
:101F000002AB03F8011D00F1260200F12401FFF7E6
:101F1000BBFE012002B010BD38B50C460B4600F1E7
:101F2000260200F12401FFF7AFFE2046BDE838404D
:101F300003F0C8BD2DE9F04F0446002BB8BF5B424B
:101F40001DB287B06B00C3F1030302929DF84020DD
:101F500001930023009302F00403DBB2BDF8446058
:101F6000039205938FB2BDF90030AB42049300F3A6
:101F70009980059BEBB1BDF80080BDF808A02368EF
:101F80001FFA85F90AEB090207EB0801D3F810B034
:101F900012B2334609B22046D84723680AEB08023A
:101FA00007EB0901D3F810B012B2334609B220464C
:101FB000D847039B99071DD5BDF800A0BDF8088040
:101FC00023681FFA85F9C9EB080207EB0A01D3F869
:101FD00010B012B2334609B22046D8472368CAEB84
:101FE000080207EB0901D3F810B012B2334609B268
:101FF0002046D847039B1A071DD5BDF80880BDF8B9
:10200000009023681FFA85FA08EB0902CAEB070162
:10201000D3F810B012B2334609B22046D84723682D
:102020000AEB0802C9EB0701D3F810B012B233462D
:1020300009B22046D847039BDB071DD5BDF800A099
:10204000BDF8088023681FFA85F9C9EB0802CAEBBE
:102050000701D3F810B012B2334609B22046D84770
:102060002368CAEB0802C9EB0701D3F810B012B21B
:10207000334609B22046D847019B002B05DA049A63
:1020800003EB82030633019308E0049B019A5B1B78
:1020900002EB83030A33013D01932DB2009B013310
:1020A000009360E707B0BDE8F08F2DE9F04F89B0ED
:1020B000BDF94C600C46002EBDF94810B8BF764201
:1020C000002B0FFA86F8054604920291BDF8507075
:1020D0000393B6B208DD06EB040A03F101090FFA17
:1020E0008AFAA9EB46090AE0039BC6EB040AC3F18E
:1020F0000009A9EB46096FEA09090FFA8AFA2B6869
:102100000FFA89F90097D3F81CB051464B46D847CF
:10211000049B029A00979A182B6812B2D3F81CB04D
:1021200051464B462846D847029B002BBDF810303D
:10213000049357DD03EB0609BDF808300FFA89F95F
:1021400003F1010A0693AAEB460A2B680FFA8AFAF2
:102150000097D3F818B0214653464A462846D84738
:10216000A3B20593059A039B009702EB030B1FFA9A
:102170008BF307932B684A469B69BDF91C101C46DC
:1021800028465346A047039B002B40F38480059BC1
:102190004A4633441CB20123009321464346284655
:1021A0000197FFF7C7FE079B4A46C6EB030B0FFAE2
:1021B0008BFB022300935946434628460197FFF7BD
:1021C000B9FE069A049B019713449E1B36B208235E
:1021D00000933246434621462846FFF7ABFE13974D
:1021E0000423AAE0049B0097C6EB0309029B0FFAA5
:1021F00089F9C3F1000AAAEB460A6FEA0A0A2B68BA
:102200000FFA8AFAD3F818B0214653464A462846B0
:10221000D847A3B20593059A039B009702EB030BE3
:102220001FFA8BF306932B684A469B69BDF9181079
:102230001C4628465346A047039B029A002B049B4A
:1022400003EB020A54DD059B4A4633441CB20823C3
:1022500000932146434628460197FFF76BFE069BF5
:102260004A46C6EB030B0FFA8BFB04230093594637
:102270004346284601975644FFF75CFE36B20123D9
:10228000009301974346324621462846FFF752FE07
:102290001397022351E0059B4A469C1B24B202235C
:1022A0000093214643462846B3440197FFF742FE78
:1022B0000FFA8BFB012300934A46434659462846B2
:1022C0000197FFF737FE029A049B594613449E1B61
:1022D00036B2082300933246434601972846FFF75B
:1022E00029FE04231293139743463246214628E0E1
:1022F000059B4A469C1B24B2042300932146434677
:102300002846B3440197FFF715FE0FFA8BFB08230D
:1023100000934A4643465946284601975644FFF7DC
:1023200009FE36B202230093019743463246214606
:102330002846FFF7FFFD13970123129332464346C9
:102340005946284609B0BDE8F04FFFF7F3BD2DE927
:10235000F04F0646002BB8BF5B421CB265008BB045
:10236000C5F103030293BDF9543007929DF8502044
:1023700001339BB2089206939B46089BBDF85820F8
:1023800003F00203DBB209938BB203924FF0000813
:1023900004930FFA88F3A34205936BDC099B33B3D4
:1023A000039D3068BDF81C700095069B04991FFAC8
:1023B00084F980691FFA88FAC9EB070203EB490325
:1023C000CAEB010105461BB212B209B23046A8475A
:1023D000049B0398C9EB03013368CAEB0702009022
:1023E0009F6912B20FFA8BF309B23046B847089BC7
:1023F000DB0725D5039D3068BDF81C700095069B52
:1024000004991FFA84F980691FFA88FAC9EB070258
:1024100003EB4903514405461BB212B209B23046E0
:10242000A847049B039803EB09013368CAEB070232
:1024300000909F6912B20FFA8BF309B23046B84789
:10244000029B002B059B05DA029A02EB8305AB1D6C
:10245000029308E0029A1B1B02EB830505F10A03B5
:10246000013C029324B20BF1020308F101081FFAA8
:1024700083FB8EE70BB0BDE8F08F2DE9F04F89B0FC
:10248000BDF94C5089B2002DB8BF6D422EB2002B61
:1024900007469346BDF94840BDF850800596069121
:1024A000ADB26BDD002C1FFA83FA32DDA3B20793C5
:1024B000079C6E00013401EB0509B6B2016824B235
:1024C0000AF101030FFA89F9CDF8048000949B1BEF
:1024D0004C6A1BB24946A047079BAB449C1B0FFAB2
:1024E0008BFB24B2022300935A46059B4946CDF844
:1024F000088001943846FFF72AFF069BCDF85080EC
:1025000003EB0A0101231293491B1394059B5A46BE
:10251000A3E0069B1619644203EB0509A3B20793D7
:10252000079A0168013212B2CDF8048000924FEA96
:10253000450B4A6A1FFA8BFB0AF101030FFA89F96E
:10254000B6B2CBEB030314461BB232B24946A047E6
:10255000079B2E44CBEB030436B2022324B2009334
:102560004946059BCDF80880019432463846FFF76E
:10257000EEFE069B03EB0A01491B67E0002C34DDED
:102580000699A4B201EB0309661C4FEA450A0168EB
:102590001FFA8AFA36B2A944C3F101030FFA89F986
:1025A000CDF804800096CAEB03034E6A1BB249467D
:1025B000B047069B05EB0B06CAEB040436B224B207
:1025C000591B012300933246059B09B2CDF80880C0
:1025D00001943846FFF7BBFE02231293CDF85080DA
:1025E0001394059B3246494638E0069A0BEB0406E5
:1025F0006442A4B202EB03094FEA450A621C016877
:102600001FFA8AFA12B2A944C3F1010300920FFA29
:1026100089F9B6B2CDF80480CAEB030332B2D1F81F
:1026200024B01BB249462E44CAEB0404D84736B244
:10263000022324B200934946059BCDF808800194FB
:1026400032463846FFF783FE069B591B324601236C
:102650001293059BCDF85080139409B2384609B007
:10266000BDE8F04FFFF773BEC1837047C08B704762
:10267000012901BFB0F90830022293FBF2F38383F2
:102680007047B0F908309942A8BF1946B0F90A302E
:1026900081849A42A8BF1A46C2847047B0F90830B4
:1026A0009942A8BF1946B0F90A3001839A42A8BFDF
:1026B0001A464283704700F001B8000008B5024B8B
:1026C0001B681B68019308BDB001060808B5024BE2
:1026D0001B689B68019308BDB001060808B5024B52
:1026E0001B68DB68019308BDB001060808B5024B02
:1026F0001B681B69019308BDB001060808B5024BB1
:102700001B681B68019308BDB401060808B5024B9D
:102710001B685B68019308BDB401060808B5024B4D
:102720001B685B69019308BDB401060808B5024B3C
:102730001B68DB69019308BDB401060808B5024BAC
:102740001B681B6A019308BDB401060808B5024B5B
:102750001B685B68019308BD9C01060808B5024B25
:102760001B68DB68019308BD9C01060808B5024B95
:102770001B685B69019308BD9C01060808B5024B04
:102780001B685B6C019308BDD001060808B5024BBD
:102790001B689B6C019308BDD001060808B5024B6D
:1027A0001B68DB6C019308BDD001060808B5024B1D
:1027B0001B685B6D019308BDD001060808B5024B8C
:1027C0001B689B69019308BDC401060808B5024B4C
:1027D0001B685B6A019308BDC401060808B5024B7B
:1027E0001B689B6A019308BDC401060808B5024B2B
:1027F0001B68DB6A019308BDC401060808B5024BDB
:102800001B681B6B019308BDC401060808B5024B89
:102810001B685B6B019308BDC401060808B5024B39
:102820001B689B6B019308BDC401060808B5024BE9
:102830001B681B6C019308BDC401060808B5024B58
:102840001B681B6E019308BDAC01060808B5024B5E
:102850001B685B6E019308BDAC01060808B5024B0E
:102860001B689B6E019308BDAC01060808B5024BBE
:102870001B68DB6E019308BDAC01060808B5024B6E
:102880001B681B6F019308BDAC01060808B5024B1D
:102890001B685B6F019308BDAC01060808B5034BCC
:1028A0001B68D3F88030019308BD0000AC01060816
:1028B00008B5024B1B681B68019308BDD8010608C8
:1028C00008B5024B1B685B68019308BDD801060878
:1028D00008B5024B1B681B69019308BDD8010608A7
:1028E00008B5024B1B685B69019308BDD801060857
:1028F00008B5024B1B689B69019308BDD801060807
:1029000008B5024B1B68DB69019308BDD8010608B6
:1029100008B5024B1B681B6A019308BDD801060865
:1029200008B5024B1B689B6C019308BDC0010608EB
:1029300008B5024B1B685B6B019308BDA801020838
:1029400008B5024B1B685B68019308BDA40106082B
:1029500008B5024B1B685B69019308BDA40106081A
:1029600008B5034B1B68D3F89030019308BD0000F5
:10297000A401060808B5034B1B68D3F89C300193EB
:1029800008BD0000A401060808B5024B1B685B687F
:10299000019308BDC801060808B5024B1B689B6877
:1029A000019308BDC801060808B5024B1B68DB6827
:1029B000019308BDC801060808B5024B1B681B69D6
:1029C000019308BDC801060808B5024B1B685B6986
:1029D000019308BDC801060808B5024B1B689B6936
:1029E000019308BDC801060808B5024B1B68DB69E6
:1029F000019308BDC801060808B5024B1B681B6A95
:102A0000019308BDC801060808B5024B1B681B6B83
:102A1000019308BDC801060808B5024B1B685B6B33
:102A2000019308BDC801060808B5024B1B68DB6BA3
:102A3000019308BDCC01060808B5024B1B681B6852
:102A4000019308BDA001060808B5024B1B685B682E
:102A5000019308BDA001060808B5024B1B68DB6B9B
:102A6000019308BDA001060810B5044B044603609D
:102A7000C06808B1FFF78AFE204610BD805E0A08D4
:102A800010B50446FFF7F0FF2046102100F024FDAA
:102A9000204610BD0068FFF781BE0068FFF786BEC4
:102AA00070B504460E46074B0025036040F80C5FE6
:102AB000FFF764FE30462671FFF738FEA56020461A
:102AC00070BD00BF805E0A0838B5054600F10C04F1
:102AD0002046FFF7DFFF28794FF6FF71FFF70EFE64
:102AE0002046FFF7DAFF38BD38B5054600F10C0483
:102AF0002046FFF7CFFF2879FFF708FE2046FFF7B3
:102B0000CCFF38BD70B505460E4600F10C042046DA
:102B1000FFF7C0FF31462879FFF700FE0546204643
:102B2000FFF7BBFFE8B270BD0079FFF707BE10B535
:102B30000446006818B1FFF787FF0023236010BD2B
:102B400010B50446FFF7F3FF204610BD4FF6FF73A4
:102B500010B5084C00202060A080A0712081638106
:102B6000FFF7EEFE2046BDE81040034A034900F09F
:102B7000A5BC00BF0001002074000020412B0A0802
:102B8000F8B506460D468F180024BD420CD03368B8
:102B900015F8011B9B6830469847002801DB044468
:102BA000F3E7002C08BF04462046F8BD70B5054683
:102BB0000C46084649B102F085FF2B6802462146C3
:102BC0002846BDE87040DB68184770BD08B5FFF7C0
:102BD000EDFF08BD03689B681847012A98BF0A22C9
:102BE00030B50B468BB000218DF824100DF1230475
:102BF000B3FBF2F505FB1233DBB2092B94BF303384
:102C00003733DBB2214604F801392B46002DEFD1D2
:102C1000FFF7CCFF0BB030BD00231A4619464068C1
:102C2000FFF7D2BE014A024B1A607047FE5E0A08E7
:102C30000C010020024B1A68024B1A60704700BF5B
:102C400008000020100100200021FFF781BE10B510
:102C50008368044613B1032201469847204610BDFD
:102C600010B50446FFF7F3FF204610BD03480023CC
:102C70008360034A034900F021BC00BF1401002017
:102C800074000020612C0A0808B5144B33B100F021
:102C90006BF903681B699847002816DC104B33B1A9
:102CA00000F020FA03681B699847002810DC0D4BE0
:102CB0000BB1AFF300800C4B7BB100F091F90368CE
:102CC0001B699847002806DC08BDAFF30080E5E7E4
:102CD000AFF30080EBE7AFF3008008BD0000000019
:102CE00000000000000000000000000008B5FFF731
:102CF000CBFFFFF73BFD014B186008BDAC05002082
:102D00000248034A0349121A02F0A0BE00400240E2
:102D10000440024030630A0807B5002300931A46B6
:102D20006FF07701FFF726FE03B05DF804FB0000AB
:102D300007B543880A2B08D0502B09D1094B1B68D3
:102D40003BB103B05DF804EB1847FFF7E5FF06E081
:102D5000002300931A466FF07701FFF70BFE03B0D4
:102D60005DF804FB2401002038B5104C104D236899
:102D7000AB42104B0CBF012200221A7002D0FFF7A9
:102D8000BFFF2560FFF7E2FC044602F073FE0A4B2A
:102D900013B12046AFF3008000210748FFF744FE3F
:102DA000BDE8384000210548FFF7DABD0040024089
:102DB0001E1C279A2801002000000000312D0A085F
:102DC000704710B50446182100F086FB204610BD60
:102DD000F8B50F4600F10806051D002416F8011D80
:102DE0000A223846FFF7F9FEAE42044407D0002C11
:102DF000F4D02E213846FFF7EDFE0444EEE72046DE
:102E0000F8BD000010B50446044B112240F8043B05
:102E1000002102F026FE204610BD00BFA05F0A0878
:102E20000346074A10B543F8042B01F1100251F88C
:102E3000044B914243F8044BF9D10A781A7010BD43
:102E4000A05F0A08024A41600260042202757047CE
:102E5000A05F0A0810B59DF8084044EA032343EA3E
:102E6000024242EA016104234160037510BD000083
:102E700037B5044D05609DF818500095FFF7EAFF3F
:102E800003B030BDA05F0A0841747047704708B5B1
:102E90000021007CFFF72CFD30EA200028BF4FF016
:102EA000FF3008BD08B50121007CFFF721FD30EAA5
:102EB000200028BF4FF0FF3008BD08B5007CFFF7A9
:102EC0000FFD20EAE07008BD08B5007CFFF700FDAB
:102ED00020EAE07008BD007CFFF71ABD10B504467B
:102EE000142100F0F9FA204610BD38B50446007CE4
:102EF0000D46FFF7F5FC002801DC607C28B129466F
:102F0000207CFFF7FDFC20EAE07038BD10B50446D8
:102F1000002363604FF47A73A360054B0846236077
:102F20000123217463741146FFF7C2FC204610BDD3
:102F3000B45F0A080022007CFFF7C2BC10B504464B
:102F40001422002102F08DFD054B20466360054BE5
:102F5000E36040F2011323818123238210BD00BF6F
:102F6000B10100203001002030B50E4D87B001A81E
:102F7000FFF7E4FF296811F0010410D12846FDF79E
:102F80009BF860B101AA21460748FFF7BFFF28461A
:102F9000FDF797F8054A0649034800F08FFA024802
:102FA00007B030BD2C010020B402002074000020C6
:102FB0008D2E0A0810B504461422002102F051FD9E
:102FC000054B20466360054BE36040F2011323810B
:102FD0008123238210BD00BF64030020CC020020A7
:102FE00010B50E4C86B001A8FFF7E4FF2368DB079D
:102FF00010D42046FDF760F860B101AA012108480D
:10300000FFF784FF2046FDF75CF8064A06490448AE
:1030100000F054FA024806B010BD00BFC8020020FC
:1030200050030020740000208D2E0A087047417460
:10303000704708B5007CFFF7F9FB20EAE07008BD97
:1030400008B5007CFFF7CAFB20EAE07008BD08B5B0
:10305000007CFFF7D3FB30EA200028BF4FF0FF30A1
:1030600008BD08B5007CFFF7C1FB30EA200028BF8F
:103070004FF0FF3008BD007CFFF7C8BB10B5044619
:10308000142100F029FA204610BD70B5457C044695
:103090000E4625B9007CFFF7C9FB002805DD314647
:1030A000207CBDE87040FFF791BB284670BD000052
:1030B00010B5044608461146002262604FF47A7249
:1030C000A260054A20742260012262741A46FFF74A
:1030D00075FB204610BD00BFE45F0A08007CFFF7C7
:1030E0009DBB000038B50C4D296811F0010411D1C9
:1030F0002846FCF7E1FF68B1084A2146084B094819
:10310000FFF7D6FF2846FCF7DCFF074A07490548CA
:1031100000F0D4F9034838BD000500200405002064
:103120007C04002068040020740000202D300A0870
:103130007047F8B5064615460C468F18BC4206D0B7
:10314000336814F8011B9B6830469847F6E7284619
:10315000F8BD0022007CFFF771BB0021007CFFF767
:1031600075BB0021007CFFF779BB0021007CFFF7D5
:103170007DBB0021007CFFF781BB10B50446142104
:1031800000F0AAF9204610BD10B504460023636084
:103190004FF47A73A360044B2174084623601146F0
:1031A000FFF77CFB204610BD14600A080021007C5C
:1031B000FFF76CBB002211464068FFF7FDBBF0B57E
:1031C000164689B011220F460446002103A802F0DA
:1031D00048FC304602F076FC0025009581B27B6801
:1031E00003AA3046FFF79CFB20B129462046FFF793
:1031F00029FE03E003A92046FFF712FE204609B08E
:10320000F0BD002211464068FFF7F6BB00221146D0
:103210004068FFF701BC00224068FFF7F5BB0022C1
:1032200081F001014068FFF7DFBB00231A46194611
:103230004068FFF7D1BB002211464068FFF7ACBBE6
:10324000002202214068FFF7AFBB00231A46406806
:10325000FFF79ABB024B04225A60024A1A60704779
:10326000880500203C600A0800231A464068FFF7E2
:103270008BBB002202214068FFF796BB002211465B
:103280004068FFF789BB002211464068FFF794BBF6
:1032900000231A4619464068FFF796BB00231A46DA
:1032A00019464068FFF798BB002281F00101406891
:1032B000FFF79ABB00224068FFF7A6BB0022114629
:1032C0004068FFF7A9BB002211464068FFF794BB96
:1032D00070B516468EB0044608A8FFF793FD11227C
:1032E000002103A802F0BDFB304602F0EBFB0025F5
:1032F0000A4B009581B25B6803AA3046FFF710FBCA
:1033000020B129462046FFF79DFD03E003A9204692
:10331000FFF786FD20460EB070BD00BF8805002077
:10332000024B034A1A6000225A6070479005002041
:1033300070600A0810B5044600F048F8FFF7F4FB87
:1033400028B1A4F10D03022B01D8002010BD00F01C
:103350008FF8FFF72BFF08B1012CF6D9FFF7C2FE5B
:10336000FFF7BCFE18B1A4F11203012BEDD9172C05
:103370008CBF0020012010BD172838B504460D462B
:103380000AD8FF2908D0FFF7D5FF28B129462046E3
:10339000BDE83840FFF79AB938BD38B504460D4648
:1033A000FFF79CF9FF2810D0062804D84D2323FAF4
:1033B00000F0C30709D42046FFF7BCFF28B1294617
:1033C0002046BDE83840FFF791B938BD38B50B4D00
:1033D000296811F001040FD12846FCF76DFE58B1A1
:1033E00021460748FFF75CFB2846FCF76AFE054AC2
:1033F0000549034800F062F8014838BDA8050020DF
:103400009805002074000020692A0A0813B5084CAA
:1034100000231A46194600932046FFF729FD20464F
:10342000044A054902B0BDE8104000F047B800BFAB
:10343000B005002074000020C12D0A0870B50446B4
:1034400014252A46094E002102F00BFB2580202579
:103450003146A5602561284600F040F8314660609D
:10346000284600F03BF8E060204670BD9C600A08EA
:1034700030B50E4D87B0296811F0010413D12846EC
:10348000FCF71AFE78B101A8FFF7D8FF01AA214680
:103490000748FFF779FE2846FCF713FE054A064960
:1034A000034800F00BF8024807B030BDC805002003
:1034B000CC0500207400002031310A080B4601467B
:1034C000184602F0B5BA0000024B1868BFF35F8FD0
:1034D000704700BFE0050020FCF7E1BD00F000B838
:1034E00010B5002814BF044601242046FFF7A4FAB3
:1034F00020B9FFF7E9FF08B18047F6E710BD0000EB
:10350000184B1A68D1075CBF01221A60164B1A6863
:10351000D2075CBF01221A60144B1A68D0075CBF47
:1035200001221A60124B1A68D1075CBF01221A608F
:10353000104B1A68D2075CBF01221A600E4B1A6842
:10354000D0075CBF01221A600C4B1A68D1075CBF20
:1035500001221A600A4B1A68D2075CBF01221A6066
:10356000704700BF00060020FC050020F805002081
:10357000F4050020F0050020EC050020E8050020FF
:10358000E4050020244B1A68D0075CBF01221A60B2
:10359000224B1A68D1075CBF01221A60204B1A68BF
:1035A000D2075CBF01221A601E4B1A68D0075CBFAD
:1035B00001221A601C4B1A68D1075CBF01221A60F5
:1035C0001A4B1A68D2075CBF01221A60184B1A689E
:1035D000D0075CBF01221A60164B1A68D1075CBF86
:1035E00001221A60144B1A68D2075CBF01221A60CC
:1035F000124B1A68D0075CBF01221A60104B1A6880
:10360000D1075CBF01221A600E4B1A68D2075CBF5B
:1036100001221A60704700BF300600202C060020EF
:103620002806002024060020200600201C0600207A
:103630001806002014060020100600200C060020AA
:103640000806002004060020244B1A68D0075CBF3F
:1036500001221A60224B1A68D1075CBF01221A604E
:10366000204B1A68D2075CBF01221A601E4B1A68F1
:10367000D0075CBF01221A601C4B1A68D1075CBFDF
:1036800001221A601A4B1A68D2075CBF01221A6025
:10369000184B1A68D0075CBF01221A60164B1A68D3
:1036A000D1075CBF01221A60144B1A68D2075CBFB5
:1036B00001221A60124B1A68D0075CBF01221A60FF
:1036C000104B1A68D1075CBF01221A600E4B1A68B2
:1036D000D2075CBF01221A60704700BF600600205D
:1036E0005C060020580600205406002050060020EA
:1036F0004C0600204806002044060020400600201A
:103700003C0600203806002034060020184B1A68BA
:10371000D1075CBF01221A60164B1A68D2075CBF42
:1037200001221A60144B1A68D0075CBF01221A608C
:10373000124B1A68D1075CBF01221A60104B1A683D
:10374000D2075CBF01221A600E4B1A68D0075CBF1B
:1037500001221A600C4B1A68D1075CBF01221A6063
:103760000A4B1A68D2075CBF01221A60704700BF7B
:10377000800600207C0600207806002074060020C9
:10378000700600206C0600206806002064060020F9
:1037900030B5214A21F00043934287B01BDD1F4A18
:1037A000934205DD02460B4601F058FA07B030BDE2
:1037B00002AA00F091F800F0030001281AD00228B4
:1037C0000FD008B3DDE9020101230093DDE90423F2
:1037D00001F07EF8EAE70022002300F059FB07B071
:1037E00030BDDDE90423DDE9020100F051FB01F108
:1037F0000041DBE70090DDE90423DDE9020101F08F
:1038000067F801F10041D1E7DDE90423DDE90201B8
:1038100000F03EFBCAE700BFFB21E93FFFFFEF7F5F
:103820002DE9F04F8BB004460D4600F06BFA284BA3
:10383000064693F900A00F46BAF1FF3F12D0224688
:103840002B462046294601F057FE834650B94FF0DB
:1038500000084FF000092046294642464B4601F039
:1038600023FE20B9304639460BB0BDE8F08F194A27
:103870000123CDF820B0CDE90445CDE90245019200
:103880000093BAF1000F15D042464B4640464946D8
:1038900001F0C2FCBAF1020FCDE906010CD1FFF72D
:1038A000DBF821230360089B63B9DDE906010BB057
:1038B000BDE8F08FCDE90689684601F04DF9002892
:1038C000F1D1ECE7FFF7C8F8089B0360EDE700BF14
:1038D0000C000020A0600A082DE9F04F944C21F064
:1038E0000047A7428FB040F381801446914A0E46AC
:1038F000974226DC84A3D3E90023002940F3A0816A
:1039000001F0ACF98C4B80469F42894600F08380E1
:103910007FA3D3E9002301F0A1F902460B464046FC
:10392000C4E90023494601F099F979A3D3E90023BA
:1039300001F094F90125C4E9020128460FB0BDE861
:10394000F08F7E4A974240F383807D4A974258DC4D
:103950003D15A5F21645A7EB05518B46824601F0B1
:10396000E1FD01F0C9FA8046894642464B46504681
:103970005946CDE9088901F071F90022714B01F037
:1039800021FB8B46824601F0CDFD01F0B5FA804661
:10399000894642464B4650465946CDE90A8901F0D0
:1039A0005DF90022674B01F00DFB00220023CDE9F9
:1039B0000C0101F06FFD002800F06A8100234046F1
:1039C0004946002201F066FD002814BF01230223AE
:1039D0005D480221019000912A46214608A800F086
:1039E0007BFB002EC0F24A81054606E0C2E90001D9
:1039F00000250024C2E90245002528460FB0BDE895
:103A0000F08F02460B4601F029F90025C4E90201B6
:103A1000C4E90001F1E740A3D3E9002301F01EF956
:103A20003FA3D3E9002306460F4601F017F90246EB
:103A30000B463046C4E90023394601F00FF938A39C
:103A4000D3E9002301F00AF90125C4E90201D4E712
:103A500000F0F4FF34A3D3E900238046894601F047
:103A6000B1FA0022394B01F0FBF801F05BFD05468D
:103A700001F042FA24A3D3E90023CDE9040101F0C7
:103A8000A1FA02460B464046494601F0E7F820A35A
:103A9000D3E9002382468B46DDE9040101F092FA66
:103AA0001F2DCDE9020155DC294B6A1E53F8223047
:103AB0009F424FD002460B465046594601F0CEF881
:103AC00002460B4681468846C4E900234A464346DF
:103AD0005046594601F0C2F8DDE9022301F0BEF874
:103AE00002460B46002EC4E9022386DA4A4608F154
:103AF000004301F1004184E80C00E160A0606D42E8
:103B00007BE700BFAFF3008000004054FB21F93F8A
:103B10003163621A61B4D03D0000601A61B4D03DD7
:103B20007370032E8A19A33B83C8C96D305FE43FCD
:103B3000FB21E93F7BD90240FB21F93FFB213941C1
:103B4000FFFFEF7F0000704128610A080000E03F9E
:103B5000A8600A08DDE902235046594601F07EF8C4
:103B60003F15C1F30A53FB1A102B81468846C4E95E
:103B70000001ABDD58A3D3E90023DDE9040101F026
:103B800021FA8046894602460B465046594601F0C6
:103B900065F8CDE9060102460B465046594601F04C
:103BA0005DF842464B4601F059F84DA3D3E9002396
:103BB00080468946DDE9040101F004FA42464B469D
:103BC00001F04CF802460B46CDE90201DDE90601A1
:103BD00001F044F80B4602468846C1F30A517F1AA9
:103BE000312F8146C4E9002372DD3FA3D3E90023CE
:103BF000DDE9040101F0E6F98046894602460B46FC
:103C0000DDE9060101F02AF802460B4682468B46A2
:103C1000DDE9060101F022F842464B4601F01EF8AC
:103C200033A3D3E9002380468946DDE9040101F08E
:103C3000C9F942464B4601F011F8CDE9020139E7D6
:103C400001F00EF82E4B80469F42894622D02AA3CF
:103C5000D3E9002301F004F802460B464046C4E9CC
:103C60000023494600F0FAFF23A3D3E9002300F024
:103C7000F7FF4FF0FF35C4E90201BEE66268E36872
:103C800002F1004203F1004345426260E360B4E6A2
:103C900003239DE610A3D3E9002300F0E1FF10A366
:103CA000D3E9002306460F4600F0DAFF02460B4632
:103CB0003046C4E90023394600F0D0FF08A3D3E919
:103CC000002300F0CDFF4FF0FF35C4E9020194E678
:103CD000DDE906ABFAE600BF0000601A61B4D03D32
:103CE0007370032E8A19A33B0000002E8A19A33B90
:103CF000C14920259A837B393163621A61B4D03D72
:103D0000FB21F93F2DE9F0415F4E0C46B6460E40CF
:103D10007645054600F0988000290B46024674DD82
:103D20005FEA215E7FD0AEF2FF3EC3F313031EF0C5
:103D3000010F43F4801363D100273E4603EBD27199
:103D40000B444FEA6E0E520016204FF40011741807
:103D50009C424FEAD2754FEA420202DC1B1B6618F6
:103D60000F44013805EB43034FEA5101EFD184467C
:103D700020244FF0004109E020D003EBD275013C34
:103D80004FEA51012B444FEA420220D09E4201EB00
:103D90000C05F1DA002D05EB010C09DBB04695426C
:103DA000A3EB060300D9013B4646521B0844E4E757
:103DB000BCF1000FF2DB06F10108F0E7954217D8DD
:103DC000002D05EB010C49DB98460023ECE713437B
:103DD00010D140087B1003F17F5303F50013FA075D
:103DE00003EB0E57394648BF40F00040BDE8F08174
:103DF0003346C2E7411C35D000F001031844E8E720
:103E00005B0003EBD273520096E721F000460643B5
:103E1000ECD079BB8E46D30AAEF1150E5205002BBD
:103E2000F9D0DD0221D4002100E001465B00DC0274
:103E300001F10100F9D5C0F1200422FA04F4234372
:103E4000C1EB0E0E82406EE702460B4601F0BAF857
:103E50002A46234600F004FFBDE8F081BCF1000FC4
:103E6000A9DAB1E701372046B4E720244FF0FF314B
:103E70000020E2E702460B4600F0F0FE02460B4649
:103E800001F0CAF9B2E700BF0000F07F00000000B7
:103E90002DE9F04F21F00046B6F1795F85B00C4670
:103EA00092469B4605466BDA01F03CFB002800F089
:103EB000E7802A4623462846214601F083F874A36A
:103EC000D3E900238046894601F07CF872A3D3E948
:103ED000002300F0C5FE42464B4601F073F870A384
:103EE000D3E9002300F0BAFE42464B4601F06AF8DF
:103EF0006DA3D3E9002300F0B3FE42464B4601F028
:103F000061F86BA3D3E9002300F0A8FE42464B46BC
:103F100001F058F868A3D3E9002300F0A1FE42465F
:103F20004B4601F04FF8CDE900010022644B4046BA
:103F3000494601F047F8DDE9002306460F464046B2
:103F4000494601F03FF85246804689465B4628467E
:103F5000214601F037F802460B464046494600F03C
:103F60007DFE02460B463046394600F077FE02469B
:103F70000B460020534900F071FE05B0BDE8F08FFC
:103F800002460B4601F01EF841A3D3E90023804608
:103F9000894601F017F840A3D3E9002300F060FE42
:103FA00042464B4601F00EF83DA3D3E9002300F052
:103FB00055FE42464B4601F005F83BA3D3E90023EA
:103FC00000F04EFE42464B4600F0FCFF38A3D3E91A
:103FD000002300F043FE42464B4600F0F3FF36A3B9
:103FE000D3E9002300F03CFE4B46424600F0EAFFD6
:103FF000354BCDE900019E4297DD344B00229E42B5
:1040000038DCA6F5001300202E4916461F4600F0A6
:1040100025FECDE902010022294B4046494600F029
:10402000D1FF32463B4600F019FEDDE9002306468B
:104030000F464046494600F0C5FF52468046894635
:104040005B462846214600F0BDFF02460B4640462F
:10405000494600F003FE02460B463046394600F062
:10406000FDFD02460B46DDE9020100F0F7FD05B05B
:10407000BDE8F08F164B0026CDE90223154FCAE7A5
:104080001049002005B0BDE8F08F00BFAFF30080FD
:10409000D43888BEE9FAA8BDC4B1B4BD9EEE213EB5
:1040A000AD529C804F7E923E9015CB19A001FA3EF6
:1040B0007751C1166CC1563F4C5555555555A53FC6
:1040C0000000E03F0000F03F3233D33F0000E93F03
:1040D0000000E73F0000D23F2DE9F04F7A4CADF5EC
:1040E0001D7D1F460C93D31E84FB0354DB17C3EBCB
:1040F000A403A69E754C23EAE37554F826406B1C76
:1041000026460994A3EB83037C1E0D95029402EBD3
:10411000C3032D1B341904900A91089316D42C4420
:10412000013422AEA79F08E057F8250000F0E4FE16
:104130000135A542E6E9020108D0002DF4DA013587
:1041400000200021A542E6E90201F6D1099B002BDF
:1041500031DB099A0C9B74A901EBC20BC3EB4373CF
:10416000029A24A9DB0001EBC20901930DF5E47A60
:10417000029B002BC0F290814C46049B0026A3F1C9
:104180000805019B002709EB0308F5E9022374E801
:10419000020100F017FF02460B463046394600F098
:1041A0005FFD444506460F46EFD1EAE90267DA456E
:1041B00009F10809DCD1099B10A91D4603F18043D0
:1041C000023B9B001A1D0A440B440F920E939CABBA
:1041D00003EBC503002D53E928672BDD9CAB03EBF4
:1041E000C504A83C0DF13C0A0DF5E47B0022384BD8
:1041F0003046394600F0E6FE01F094F900F07CFE0E
:104200000022344B8046894600F0DCFE02460B4615
:104210003046394600F022FD01F084F974E80223AB
:104220004AF8040F4946404600F01AFD5C45064630
:104230000F46DBD1089C30463946224600F090FC00
:1042400000224FF07F5306460F4600F0BBFE00F001
:10425000FBFB0022204B00F0B5FE02460B46304629
:10426000394600F0FBFC0F46064601F05BF981463B
:1042700000F042FE02460B463046394600F0EEFCA6
:10428000002C06460F4640F3EE80681E10AB53F834
:104290002030C4F1180243FA02F101FA02F29B1A2B
:1042A000C4F1170810AA42F82030894443FA08F8EC
:1042B000B8F1000F3DDD002D09F1010940F3D58271
:1042C000002214460FA911E0ABAAAA2A30620A08FC
:1042D0000000703E0000704100002040C3F180707B
:1042E0000BB108600124013295420DDD51F8043F05
:1042F000002CF3D0C3F1FF13013203F57F43954245
:104300000B604FF00104F1DC089B002B0DDD012B4D
:1043100000F0B180022B08D16A1E10AB53F8223096
:1043200010A9C3F3150341F82230B8F1020F00F0D1
:104330008180002200233046394601F0ABF8002886
:1043400000F05D82099B05F1FF3B5B4510DC05F148
:10435000804310AA013B0F9802EB8303002253F81D
:104360000419834242EA0102F9D1002A40F0B180E7
:10437000099B10AA013B52F82330002B40F07382B6
:104380000E9A012352F8041901330029FAD0E918D2
:104390006A1C8A420B914BDC0D990C985118DB007A
:1043A00001F180410593A79B05440139E80003EB27
:1043B000810A24ABD20003EB000B74AB13440193CE
:1043C000A2F10803069007934FF000095AF8040F72
:1043D00000F092FD029BEBE80201002B4FF000067B
:1043E0004FF000071BDB069B03EB0904079B09EB5F
:1043F000030824AB1C449844049BA3F10805F5E989
:10440000022374E8020100F0DDFD02460B4630464F
:10441000394600F025FC444506460F46EFD1019B86
:1044200009F10809E3E802670193059B9945CDD19D
:104430000B9DCCE632463B460020B14900F00EFC15
:1044400006460F46002C3FF474AF089A0020AC4992
:1044500000F086FB02460B463046394600F0FEFB74
:1044600006460F4665E710D16B1E10AA52F823309E
:104470004FEAE3581CE76A1E10AB53F8223010A92C
:10448000C3F3160341F822304FE700229D4B01F0A1
:104490001FF858B980464CE700260027EAE9026772
:1044A000DA4509F108097FF463AE84E6002D09F1CD
:1044B0000109C8BF4FF002083FF702AF32463B4642
:1044C00000208F4900F0CAFB4FF0020806460F4655
:1044D0002FE7089A10AB53F82B30183ACDF8149008
:1044E000CDF8048008926BB90BF18043013B10A911
:1044F00001EB830353F804190BF1FF3B183A002931
:10450000F8D00892089A00207D4900F029FBBBF101
:10451000000F04460D46C0F2B8814FEACB030DF5FB
:10452000E87810AA02EB8B0608EB03090493043623
:1045300009F1080756F8040D00F0DEFC22462B4670
:1045400000F040FD002267E902016F4B204629463A
:1045500000F038FDB84504460D46EBD14B46CDF88A
:1045600018B09B460DF5987ACDF808A0DDF824A088
:104570004FF00009BAF1000FC0F228815EA3D3E921
:104580000023DFF888815D4600260027002403E031
:10459000A14510DBF8E90223F5E8020100F012FD65
:1045A00002460B463046394600F05AFB0134A2451C
:1045B00006460F46ECDA029BABF1080B03EBC9038E
:1045C000C3E9006772AB5B4509F10109D2D1A69B33
:1045D000DDF818B0DDF808A0032B00F28380DFE8D7
:1045E00013F0D300970097000400BBF1000F40F3D5
:1045F0005681049BCDF808B053449846D3E9006730
:10460000D34658E9029A32463B464846514600F0A6
:1046100027FB04460D4602460B464846514600F02D
:104620001DFB32463B4600F01BFBC8E9000168E970
:104630000245C34526462F46E3D1DA46DDF808B0E9
:10464000BBF1010F40F32B81049B0DF59C7B534480
:104650009846D3E90067994659E902343046CDE9D6
:1046600002341A463946234600F0FAFA04460D464B
:1046700002460B46DDE9020100F0F0FA32463B4605
:1046800000F0EEFAC9E9000169E90245CB4526468A
:104690002F46E1D100231D4608F1080850AC18460A
:1046A00078E90223294600F0DBFA444503460D462B
:1046B000F5D1019A002A00F0DA80DAF80440DAF83D
:1046C0000C200A9FDAF80010DAF8080005F100451E
:1046D00004F1004402F100427D613B617C60FA60BC
:1046E0003960B860059B03F007000DF51D7DBDE83E
:1046F000F08F00BFAFF3008000000040FB21F93FC6
:104700000000F03F0000E03F0000703E40620A08F9
:1047100000242146049D0835554475E902232046AE
:1047200000F09EFA55450446F7D1019B002B50D06E
:104730000A9F01F100450B46DAE9000187E83000E5
:10474000224600F08BFABBF1000F03460D460DDD4B
:1047500001241846FAE90223294600F081FA0134BF
:10476000A34503460D46F4DA019A0AB105F1004566
:10477000184629460A9BC3E90201059B03F007007E
:104780000DF51D7DBDE8F08F00231C46049A08320C
:10479000924418467AE90223214600F061FA0BF1AF
:1047A000FF3BBBF1FF3F03460C46F2D1019A0AB131
:1047B00004F10044184621460A9BC3E90001059B09
:1047C00003F007000DF51D7DBDE8F08F00260027E2
:1047D000F1E626460F4622460A9C0B46DAE900011E
:1047E000C4E9006700F03AFABBF1000F03460D463A
:1047F000AEDC184629460A9BC3E90201BDE7089BC7
:1048000030465A423946CDF81490CDF8048000F075
:10481000A7F900222C4B06460F4600F059FE00284F
:1048200040D00022294B3046394600F0CBFB00F047
:1048300079FE044600F060FB0022234B00F0C2FB2F
:104840000B4602463946304600F008FA00F06AFE90
:10485000089B05F1010B1833089310AB43F82500B2
:1048600043F82B404EE6012391E500244CE5184621
:10487000DAE90067DAE9022329460A9DC5E90067FB
:10488000C5E90401C5E902232CE7A69B032B3FF6EB
:1048900029AFDFE803F0151010020DF5987A002318
:1048A0001D4606E73046394600F03CFE10ABAB46ED
:1048B00043F8250026E6002421460DF5987A34E7D2
:1048C00000231C4672E700BF000070410000703EEC
:1048D0002DE9F04F21F00046B6F1795F85B00C4626
:1048E00090469946054604DA00F01CFE002800F0C8
:1048F00085802A4623462846214600F063FB06466B
:104900000F4602460B462846214600F05BFB3EA3BD
:10491000D3E9002382468B463046394600F052FBED
:104920003BA3D3E9002300F099F932463B4600F05F
:1049300049FB39A3D3E9002300F092F932463B4604
:1049400000F040FB36A3D3E9002300F087F932469C
:104950003B4600F037FB34A3D3E9002300F080F995
:104960000E9BCDE900019BB30022334B40464946E4
:1049700000F028FBDDE90023CDE90201504659464D
:1049800000F020FB02460B46DDE9020100F066F96B
:1049900032463B4600F016FB42464B4600F05EF9BD
:1049A00023A3D3E9002306460F465046594600F09C
:1049B00009FB02460B463046394600F051F90246E3
:1049C0000B462846214600F049F905B0BDE8F08FB6
:1049D00002460B463046394600F0F4FA14A3D3E9F8
:1049E000002300F03BF952465B4600F0EBFA2A4602
:1049F000234600F035F905B0BDE8F08F2846214682
:104A000005B0BDE8F08F00BF7CD5CF5A3AD9E53D5F
:104A1000EB9C2B8AE6E55A3E7DFEB157E31DC73E6F
:104A2000D561C119A0012A3FA6F810111111813FCB
:104A3000495555555555C53F0000E03F21F000410F
:104A4000704700BF00000000C1F30A522DE9F8438F
:104A5000A2F2FF36132E0B4604460D468846074643
:104A60001CDC002E3FDB3A4A864642FA06F901EA90
:104A70000902024317D034A3D3E9002300F0F0F871
:104A80000022002300F02EFD20B1002D40DB28EA9B
:104A90000905002738462946BDE8F883332E06DD90
:104AA000B6F5806F2FD020461946BDE8F883A2F2F4
:104AB00013424FF0FF3929FA02F910EA090FF2D038
:104AC00021A3D3E9002300F0CBF80022002300F05B
:104AD00009FD0028DED0002D20DB454627EA090726
:104AE00038462946D8E718A3D3E9002300F0B8F8E0
:104AF0000022002300F0F6FC0028CBD0002D18DBAC
:104B000000273D46C6E702460B4600F0A9F8CCE771
:104B10004FF4801343FA06F6B044B8E7142E10D0D1
:104B20000123C6F1340603FA06F6371928BF984464
:104B3000D3E725F00042074B224318BF1D4600274C
:104B4000A8E705F10108C8E79C7500883CE4377EBA
:104B5000FFFF0F000000F0BF0020704700000000C2
:104B6000F8B5C1F30A5604460D460B46174606BB78
:104B700021F00043034325D000222F4B00F022FAFE
:104B80002E4A044697420D460B462ADBC1F30A56CD
:104B9000363E40F2FE723E44964228DC002E12DD84
:104BA00023F0FF4323F4E00343EA06552046294659
:104BB000F8BD40F2FF729642EBD102460B4600F080
:104BC0004FF8F8BDF8BD16F1350F1DDA4CF2503331
:104BD0009F420CDC14A1D1E9000122462B4600F0D3
:104BE00031F811A3D3E9002300F0ECF9F8BD224617
:104BF0000FA1D1E900012B4600F024F80CA3D3E962
:104C0000002300F0DFF9F8BD23F0FF4323F4E003B5
:104C1000363643EA0655204629460022084B00F066
:104C2000D1F9F8BDAFF3008059F3F8C21F6EA501AA
:104C30009C7500883CE4377E00005043B03CFFFF89
:104C40000000903C03F0004321F0004242EA0301DF
:104C5000704700BF81F0004102E000BF83F00043D5
:104C600030B54FEA41044FEA430594EA050F08BF07
:104C700090EA020F1FBF54EA000C55EA020C7FEACB
:104C8000645C7FEA655C00F0E2804FEA5454D4EB48
:104C90005555B8BF6D420CDD2C4480EA020281EA12
:104CA000030382EA000083EA010180EA020281EA4A
:104CB0000303362D88BF30BD11F0004F4FEA01319C
:104CC0004FF4801C4CEA113102D0404261EB4101AB
:104CD00013F0004F4FEA03334CEA133302D0524231
:104CE00063EB430394EA050F00F0A780A4F10104ED
:104CF000D5F1200E0DDB02FA0EFC22FA05F2801827
:104D000041F1000103FA0EF2801843FA05F359410C
:104D10000EE0A5F120050EF1200E012A03FA0EFC8B
:104D200028BF4CF0020C43FA05F3C01851EBE371B5
:104D300001F0004507D54FF0000EDCF1000C7EEBD2
:104D400000006EEB0101B1F5801F1BD3B1F5001F10
:104D50000CD349085FEA30004FEA3C0C04F101042F
:104D60004FEA445212F5800F80F09A80BCF1004F58
:104D700008BF5FEA500C50F1000041EB045141EADA
:104D8000050130BD5FEA4C0C404141EB010111F4DB
:104D9000801FA4F10104E9D191F0000F04BF014686
:104DA0000020B1FA81F308BF2033A3F10B03B3F164
:104DB00020020CDA0C3208DD02F1140CC2F10C02F4
:104DC00001FA0CF021FA02F10CE002F11402D8BF52
:104DD000C2F1200C01FA02F120FA0CFCDCBF41EA1E
:104DE0000C019040E41AA2BF01EB0451294330BDED
:104DF0006FEA04041F3C1CDA0C340EDC04F11404CA
:104E0000C4F1200220FA04F001FA02F340EA0300A0
:104E100021FA04F345EA030130BDC4F10C04C4F1E6
:104E2000200220FA02F001FA04F340EA03002946C6
:104E300030BD21FA04F0294630BD94F0000F83F410
:104E4000801306BF81F480110134013D4EE77FEAF3
:104E5000645C18BF7FEA655C29D094EA050F08BF3F
:104E600090EA020F05D054EA000C04BF1946104620
:104E700030BD91EA030F1EBF0021002030BD5FEA64
:104E8000545C05D14000494128BF41F0004130BD8C
:104E900014F580043CBF01F5801130BD01F00045E0
:104EA00045F0FE4141F470014FF0000030BD7FEA53
:104EB000645C1ABF194610467FEA655C1CBF0B464E
:104EC000024650EA013406BF52EA033591EA030F65
:104ED00041F4002130BD00BF90F0000F04BF00215D
:104EE000704730B54FF4806404F132044FF0000590
:104EF0004FF0000150E700BF90F0000F04BF002109
:104F0000704730B54FF4806404F1320410F000456E
:104F100048BF40424FF000013EE700BF42004FEA69
:104F2000E2014FEA31014FEA02701FBF12F07F43E6
:104F300093F07F4F81F06051704792F0000F14BFE3
:104F400093F07F4F704730B54FF4607401F0004527
:104F500021F0004120E700BF50EA010208BF70477E
:104F600030B54FF000050AE050EA010208BF704773
:104F700030B511F0004502D5404261EB41014FF4DC
:104F8000806404F132045FEA915C3FF4DCAE4FF0E0
:104F900003025FEADC0C18BF03325FEADC0C18BFC7
:104FA000033202EBDC02C2F1200300FA03FC20FA18
:104FB00002F001FA03FE40EA0E0021FA02F1144465
:104FC000C1E600BF70B54FF0FF0C4CF4E06C1CEA7A
:104FD00011541DBF1CEA135594EA0C0F95EA0C0FEF
:104FE00000F0DEF82C4481EA030621EA4C5123EA62
:104FF0004C5350EA013518BF52EA033541F4801191
:1050000043F4801338D0A0FB02CE4FF00005E1FB43
:1050100002E506F00042E0FB03E54FF00006E1FB8D
:1050200003569CF0000F18BF4EF0010EA4F1FF04D0
:10503000B6F5007F64F5407404D25FEA4E0E6D4110
:1050400046EB060642EAC62141EA55514FEAC52021
:1050500040EA5E504FEACE2EB4F1FD0C88BFBCF59D
:10506000E06F1ED8BEF1004F08BF5FEA500E50F14E
:10507000000041EB045170BD06F0004646EA010114
:1050800040EA020081EA0301B4EB5C04C2BFD4EB46
:105090000C0541EA045170BD41F480114FF0000E3F
:1050A000013C00F3AB8014F1360FDEBF002001F0AD
:1050B000004170BDC4F10004203C35DA0C341BDC27
:1050C00004F11404C4F1200500FA05F320FA04F0F9
:1050D00001FA05F240EA020001F0004221F000412D
:1050E00010EBD37021FA04F642EB06015EEA430EA0
:1050F00008BF20EAD37070BDC4F10C04C4F12005D0
:1051000000FA04F320FA05F001FA04F240EA020082
:1051100001F0004110EBD37041F100015EEA430E53
:1051200008BF20EAD37070BDC4F1200500FA05F273
:105130004EEA020E20FA04F301FA05F243EA0203F2
:1051400021FA04F001F0004121FA04F220EA020001
:1051500000EBD3705EEA430E08BF20EAD37070BD47
:1051600094F0000F0FD101F00046400041EB010127
:1051700011F4801F08BF013CF7D041EA060195F009
:10518000000F18BF704703F00046520043EB0303C3
:1051900013F4801F08BF013DF7D043EA06037047B0
:1051A00094EA0C0F0CEA135518BF95EA0C0F0CD0BB
:1051B00050EA410618BF52EA4306D1D181EA030101
:1051C00001F000414FF0000070BD50EA410606BFFB
:1051D0001046194652EA430619D094EA0C0F02D140
:1051E00050EA013613D195EA0C0F05D152EA033685
:1051F0001CBF104619460AD181EA030101F00041A3
:1052000041F0FE4141F470014FF0000070BD41F0EB
:10521000FE4141F4780170BD70B54FF0FF0C4CF4C5
:10522000E06C1CEA11541DBF1CEA135594EA0C0FE4
:1052300095EA0C0F00F0A7F8A4EB050481EA030E31
:1052400052EA03354FEA013100F088804FEA033318
:105250004FF0805545EA131343EA12634FEA0222E6
:1052600045EA111545EA10654FEA00260EF00041A7
:105270009D4208BF964244F1FD0404F5407402D2F9
:105280005B084FEA3202B61A65EB03055B084FEA8A
:1052900032024FF480104FF4002CB6EB020E75EB87
:1052A000030E22BFB61A754640EA0C005B084FEAAF
:1052B0003202B6EB020E75EB030E22BFB61A75462C
:1052C00040EA5C005B084FEA3202B6EB020E75EB77
:1052D000030E22BFB61A754640EA9C005B084FEAEF
:1052E0003202B6EB020E75EB030E22BFB61A7546FC
:1052F00040EADC0055EA060E18D04FEA051545EAEB
:1053000016754FEA06164FEAC30343EA52734FEA93
:10531000C2025FEA1C1CC0D111F4801F0BD141EA0C
:1053200000014FF000004FF0004CB6E711F4801F71
:1053300004BF01430020B4F1FD0C88BFBCF5E06F51
:105340003FF6AFAEB5EB030C04BFB6EB020C5FEA61
:10535000500C50F1000041EB045170BD0EF0004EB6
:105360004EEA113114EB5C04C2BFD4EB0C0541EAE8
:10537000045170BD41F480114FF0000E013C90E6E5
:1053800045EA060E8DE60CEA135594EA0C0F08BFA9
:1053900095EA0C0F3FF43BAF94EA0C0F0AD150EAA8
:1053A00001347FF434AF95EA0C0F7FF425AF10463B
:1053B00019462CE795EA0C0F06D152EA03353FF463
:1053C000FDAE1046194622E750EA410618BF52EAE0
:1053D00043067FF4C5AE50EA41047FF40DAF52EAB4
:1053E00043057FF4EBAE12E74FF0FF3C06E000BF51
:1053F0004FF0010C02E000BF4FF0010C4DF804CD5E
:105400004FEA410C7FEA6C5C4FEA430C18BF7FEA1D
:105410006C5C1BD001B050EA410C0CBF52EA430C4B
:1054200091EA030F02BF90EA020F0020704710F1CB
:10543000000F91EA030F58BF994208BF90422CBF5A
:10544000D8176FEAE37040F0010070474FEA410C53
:105450007FEA6C5C02D150EA013C07D14FEA430C71
:105460007FEA6C5CD6D152EA033CD3D05DF8040BE2
:10547000704700BF8446104662468C461946634614
:1054800000E000BF01B5FFF7B7FF002848BF10F1EB
:10549000000F01BD4DF808EDFFF7F4FF0CBF012030
:1054A00000205DF808FB00BF4DF808EDFFF7EAFFAC
:1054B00034BF012000205DF808FB00BF4DF808ED67
:1054C000FFF7E0FF94BF012000205DF808FB00BF5C
:1054D0004DF808EDFFF7CEFF94BF012000205DF8E6
:1054E00008FB00BF4DF808EDFFF7C4FF34BF0120F3
:1054F00000205DF808FB00BF4FEA410C7FEA6C5CBE
:1055000002D150EA013C0AD14FEA430C7FEA6C5CBD
:1055100002D152EA033C02D14FF0000070474FF035
:10552000010070474FEA410212F5001215D211D561
:105530006FF47873B3EB625212D94FEAC12343F090
:10554000004343EA505311F0004F23FA02F018BF12
:10555000404270474FF00000704750EA013005D1DB
:1055600011F0004008BF6FF0004070474FF000009E
:10557000704700BF80F0004002E000BF81F00041B2
:1055800042001FBF5FEA410392EA030F7FEA226CE9
:105590007FEA236C6AD04FEA1262D2EB1363C1BF79
:1055A000D218414048404140B8BF5B42192B88BFE8
:1055B000704710F0004F40F4000020F07F4018BF0B
:1055C000404211F0004F41F4000121F07F4118BF2B
:1055D000494292EA030F3FD0A2F1010241FA03FCD3
:1055E00010EB0C00C3F1200301FA03F100F00043BB
:1055F00002D5494260EB4000B0F5000F13D3B0F183
:10560000807F06D340084FEA310102F10102FE2AF1
:1056100051D2B1F1004F40EBC25008BF20F0010061
:1056200040EA03007047490040EB000010F4000F0F
:10563000A2F10102EDD1B0FA80FCACF1080CB2EBA2
:105640000C0200FA0CF0AABF00EBC2505242184301
:10565000BCBFD0401843704792F0000F81F40001A6
:1056600006BF80F400000132013BB5E74FEA410379
:105670007FEA226C18BF7FEA236C21D092EA030FE5
:1056800004D092F0000F08BF0846704790EA010F5F
:105690001CBF0020704712F07F4F04D1400028BF8C
:1056A00040F00040704712F100723CBF00F500006E
:1056B000704700F0004343F0FE4040F400007047A4
:1056C0007FEA226216BF08467FEA23630146420250
:1056D00006BF5FEA412390EA010F40F48000704763
:1056E0004FF0000304E000BF10F0004348BF404209
:1056F0005FEA000C08BF704743F0964301464FF045
:1057000000001CE050EA010208BF70474FF00003A0
:105710000AE000BF50EA010208BF704711F00043E1
:1057200002D5404261EB41015FEA010C02BF8446B1
:105730000146002043F0B64308BFA3F18053A3F510
:105740000003BCFA8CF2083AA3EBC25310DB01FA57
:1057500002FC634400FA02FCC2F12002BCF1004FDB
:1057600020FA02F243EB020008BF20F0010070476C
:1057700002F1200201FA02FCC2F1200250EA4C00C0
:1057800021FA02F243EB020008BF20EADC70704706
:105790004FF0FF0C1CEAD0521EBF1CEAD15392EA14
:1057A0000C0F93EA0C0F6FD01A4480EA010C4002F0
:1057B00018BF5FEA41211ED04FF0006343EA50104A
:1057C00043EA5111A0FB01310CF00040B1F5000F8C
:1057D0003EBF490041EAD3715B0040EA010062F13B
:1057E0007F02FD2A1DD8B3F1004F40EBC25008BF25
:1057F00020F00100704790F0000F0CF0004C08BF43
:1058000049024CEA502040EA51207F3AC2BFD2F10F
:10581000FF0340EAC250704740F400004FF000031D
:10582000013A5DDC12F1190FDCBF00F00040704757
:10583000C2F10002410021FA02F1C2F1200200FA95
:1058400002FC5FEA310040F1000053EA4C0308BF5C
:1058500020EADC70704792F0000F00F0004C02BFAD
:10586000400010F4000F013AF9D040EA0C0093F028
:10587000000F01F0004C02BF490011F4000F013B82
:10588000F9D041EA0C018FE70CEAD15392EA0C0FF0
:1058900018BF93EA0C0F0AD030F0004C18BF31F05B
:1058A000004CD8D180EA010000F00040704790F031
:1058B000000F17BF90F0004F084691F0000F91F0D5
:1058C000004F14D092EA0C0F01D142020FD193EA9B
:1058D0000C0F03D14B0218BF084608D180EA010023
:1058E00000F0004040F0FE4040F40000704740F0FF
:1058F000FE4040F4400070474FF0FF0C1CEAD052CD
:105900001EBF1CEAD15392EA0C0F93EA0C0F69D028
:10591000A2EB030280EA010C49024FEA402037D093
:105920004FF0805343EA111143EA10130CF000408A
:105930008B4238BF5B0042F17D024FF4000C8B427A
:1059400024BF5B1A40EA0C00B3EB510F24BFA3EB5A
:10595000510340EA5C00B3EB910F24BFA3EB91032A
:1059600040EA9C00B3EBD10F24BFA3EBD10340EA84
:10597000DC001B0118BF5FEA1C1CE0D1FD2A3FF6CA
:1059800050AF8B4240EBC25008BF20F0010070477F
:105990000CF0004C4CEA50207F32C2BFD2F1FF0322
:1059A00040EAC250704740F400004FF00003013A53
:1059B00037E792F0000F00F0004C02BF400010F4F7
:1059C000000F013AF9D040EA0C0093F0000F01F00B
:1059D000004C02BF490011F4000F013BF9D041EA2D
:1059E0000C0195E70CEAD15392EA0C0F08D1420260
:1059F0007FF47DAF93EA0C0F7FF470AF084676E733
:105A000093EA0C0F04D14B023FF44CAF08466EE70B
:105A100030F0004C18BF31F0004CCAD130F00042D9
:105A20007FF45CAF31F000437FF43CAF5FE700BF31
:105A300010B5054C13462CB10A4601460220AFF3BF
:105A4000008010BD204610BD0000000010B5431EB0
:105A50000A44914204D011F8014B03F8014FF8E7D2
:105A600010BD03460244934202D003F8011BFAE73B
:105A70007047000038B5124B05461C68A36BD3B9BC
:105A80001820FCF7D9FF43F20E33A06303804AF6D7
:105A9000CD33438041F2342383804EF26D63C38063
:105AA0004DF6EC630381052343810B23838101229F
:105AB0000023C0E90423A36B00221D615A6138BD95
:105AC00070000020034613F8012B002AFBD1181A9E
:105AD0000138704721000A0861000A088D000A0891
